:020000040800F2
:10000000E81C0020010100086F3800088336000852
:100010006D380008011F0008D53B000800000000F3
:100020000000000000000000000000004D39000842
:10003000471F000800000000713800084F39000811
:100040001B0100081B0100081B0100081B01000820
:100050001B0100081B0100081B0100081B01000810
:100060001B0100081B0100081B010008051F0008F8
:100070001B010008111F00081B0100081B010008DC
:100080001B0100081B0100081B0100081B010008E0
:100090001B0100081B0100081B0100081B010008D0
:1000A0001B0100081B0100081B0100081B010008C0
:1000B0001B0100081B0100081B0100081B010008B0
:1000C0001B0100081B0100081B0100081B010008A0
:1000D0001B0100081B0100081B0100081B01000890
:1000E0001B0100081B0100081B010008DFF80CD0F1
:1000F00000F048FC00480047C9470008E81C002001
:100100000648804706480047FEE7FEE7FEE7FEE7B1
:10011000FEE7FEE7FEE7FEE7FEE7FEE7CB39000875
:10012000ED000008202A04DB203A21FA02F0002129
:10013000704721FA02F3D040C2F1200291400843F7
:1001400019467047D2B201E000F8012B491EFBD2DC
:1001500070470022F6E710B513460A4604461946D2
:10016000FFF7F0FF204610BDF0B480EA0102D40F83
:100170004200B2EB410F02D20246084611464A0045
:1001800042D0C30DDDB2C1F3C752AD1A202D35DA0E
:10019000C1F3160141F4000204B15242C5F1200638
:1001A00002FA06F12A411044B3EBD05F23D0C4B168
:1001B000012DA0EBC35009DCF0BC4FF0004202EA75
:1001C000C352DBB200F5000000F04ABA400000F173
:1001D000807000EBC350A0F1807040EAD1704900FC
:1001E00009E0490841EAC071A0EBC35000F50000E6
:1001F000400800EBC350F0BC00F029BA6142012274
:1002000002EB4101001BF6E7F0BC704781F00041B2
:10021000AAE780F00040A7E780EA010210B502F0EB
:100220000043400022D04A001FD0010E01EB1261B2
:10023000C0F35600C2F3560240F4000042F400023C
:10024000A0FB022000047F39140400D0401C50EAB7
:10025000124001D44000491EC2B20C0604EBD0107B
:10026000401C4008802A02D003E0002010BD20F08E
:100270000100002900DA0020184310BD30B480EAE4
:10028000010202F0004530F0004221F0004013D09E
:1002900090B1C30DD40DC2F31601C0F31600E41AD9
:1002A00041F4000140F400027D34914201D3641C0A
:1002B00000E04900002C02DA30BC002070474FF407
:1002C00000000023914201D3891A034340084FEAFA
:1002D0004101F7D151B1914202D14FF0004105E007
:1002E00002D24FF0010101E06FF0010103EBC450B5
:1002F000284430BC00F0ABB9420005D0C0F3C7526F
:100300005242914201DC0020704700EBC15070471F
:100310002DE9FE4F81EA030404F0004421F000417E
:1003200000944FF0000B23F0004350EA01045ED02C
:1003300052EA03045BD0C3F30A54C1F30A552C44B8
:10034000A4F2F3340194A0FB0254C1F3130141F46D
:100350008011C3F3130343F4801301FB024400FB39
:10036000034E840A970A44EA815447EA8357A4FB60
:10037000076802958D0A05FB07854FEA932C04FB5D
:100380000C542705029D4FEA065847EA1637B5EB8D
:1003900008056EEB070C870E920E47EA811742EABA
:1003A0008312A7FB0201B6EB0B0164EB00042B0DDB
:1003B00043EA0C335E1844EB1C50DA465146E7FB27
:1003C0000201C5F313044FEA0B3343EA14534FEA17
:1003D0000432019C43EA0603A4F10C040294009C3D
:1003E000CDE900B400F0A8F903B0BDE8F08F00201B
:1003F0000146F9E72DE9F04D81EA030404F0004BD2
:1004000021F0004514464FF0000A23F0004150EA65
:10041000050220D054EA01021DD0C5F30A57024656
:10042000C5F31303C1F31300C1F30A5640F480155A
:1004300043F48013A7EB0608101BD64608F2FD38DC
:1004400073EB050002D308F1010801E092185B414B
:10045000B8F1000F03DA00200146BDE8F08D00205E
:100460004FF48011064684460EE0171B73EB050718
:1004700005D3121B63EB050306434CEA010C490844
:100480004FEA300092185B4150EA0107EDD152EA81
:10049000030012D082EA040083EA0501084305D074
:1004A000101BAB4106D20122002306E000224FF0D0
:1004B000004302E06FF0010253101AEB06004CEB10
:1004C000085110EB0A0041EB0B01BDE8F04D00F0C4
:1004D00024B970B521F0004303430CD0C1F30A5591
:1004E0000024D5EB040564EB0403D617AD1AB34121
:1004F00002DB0020014670BD201841EB025170BDA7
:1005000096230022114600F0ABB80EB540F23341FD
:1005100002910021CDE900110A460B4600F00CF9CA
:1005200003B000BD20F00040C10DC0F3160040F440
:1005300000007F2901DA00207047962903DCC1F111
:100540009601C840704796398840704700F00042D5
:1005500030F000400AD0C10D01F56071C0F3160003
:1005600042EA0151C208400711437047002001468A
:10057000704701F0004330B421F0004150EA01021D
:1005800006D00A0DA2F56072C1F31301002A02DC45
:1005900030BC00207047440F44EAC104C100E01899
:1005A00030BC00EBC25000F052B80000002801DB64
:1005B000C0F10040002901DBC1F1004181427047D8
:1005C00030B50B46014600202022012409E021FA23
:1005D00002F59D4205D303FA02F5491B04FA02F520
:1005E0002844151EA2F10102F1DC30BD2DE9F05FB7
:1005F0000546002092469B46884606468146402492
:100600001BE02846414647462246FFF78BFD5346EE
:100610005A46C01A914110D311461846224600F09E
:10062000C3F92D1A67EB01084F462246012000212D
:1006300000F0BAF917EB00094E41201EA4F10104A5
:10064000DFDC484631462A464346BDE8F09F002994
:10065000A8BF7047401C490008BF20F00100704748
:1006600010B4B0FA80FC00FA0CF050EA010404BFA8
:1006700010BC704749B1CCF1200421FA04F411FAFE
:100680000CF118BF012121430843A3EB0C01CB1D42
:100690004FEA00614FEA102042BF002010BC7047B3
:1006A00000EBC35010440029A4BF10BC7047401C8D
:1006B000490008BF20F0010010BC7047F0B40028CA
:1006C00002DCF0BC00207047C0F3C751C0F3160035
:1006D00040F40000CA0701D14000491E3F2202EB4E
:1006E0006105002211464FF4000626FA01F3134477
:1006F000D418844201D8001B1A464000491C17290F
:10070000F3DD5100814202D24FF0FF3100E00021C1
:1007100002EBC550F0BCFFF79ABF10B5141E73F181
:10072000000408DA401C41F1000192185B411A43B1
:1007300001D120F0010010BD2DE9F04D92469B46FD
:1007400011B1B1FA81F202E0B0FA80F220329046A3
:1007500000F02AF904460F4640EA0A0041EA0B017C
:1007600053465A46084313D0114653EA010019D0A4
:10077000C8F140025046FFF7D5FC05460E465046EC
:100780005946424600F010F9084305D0012004E024
:1007900020463946BDE8F08D0020054346EAE07664
:1007A0002C4337430A986305E40AA0EB08000022B3
:1007B000FD0A44EA47540A3002D500200146E9E721
:1007C000010510196941DDE9084500196941BDE8D5
:1007D000F04DA2E72DE9FE4F804681EA0300C00FED
:1007E0000C46009021F0004123F00045B8EB0200D8
:1007F000A94105D24046214690461C460B4602467A
:1008000023F00040104347D0270DC7F30A00C3F37D
:100810000A510290401A019040286BDAC3F313008A
:1008200040F4801B0098924620B10023D2EB030ACB
:1008300063EB0B0B01985946C0F14002504600F0A3
:10084000B3F806460D4650465946019A00F0BBF8EB
:1008500010EB08006141002487EA115284EAE77333
:100860001A4340D0009A62B3019A012A4FEA075214
:1008700015DC001B61EB02014FF0004202EA075257
:10088000CDE90042001C41F5801132462B46FFF7AE
:1008900053FF03B0BDE8F08F40462146F9E7001B47
:1008A00061EB0201001C41F5801300185B41201828
:1008B000A2F5001747EB030140EAD570B6196D4168
:1008C00011E06D084FEA360645EAC0754FEA075257
:1008D000001B61EB0201001C41F5801149084FEA41
:1008E00030000019514132462B4603B0BDE8F04FAD
:1008F000FFF713BF0098012240000023D0EB020253
:1009000063EBE073009821464FEAE074B8EB000017
:1009100061EB0401E9E783F000435BE781F000410C
:1009200058E7C1F30A52C1F3130140F2FF3341F417
:1009300080119A4202DA00200146704740F23343A8
:100940009A42A2F2334202DC5242FFF7EBBB00F0C4
:100950002BB8000030B5041E71F1000404DB4FF029
:100960000044404264EB0101141E73F1000405DBF6
:100970001C464FF00043524263EB0403994208BF08
:10098000904230BD064C074D06E0E06840F00103A0
:1009900094E8070098471034AC42F6D3FFF7AAFB5F
:1009A000686C0008886C0008202A04DB203A00FAF2
:1009B00002F1002070479140C2F1200320FA03F3B6
:1009C000194390407047202A06DBCB17203A41FAA2
:1009D00002F043EAE07306E041FA02F3D040C2F1CC
:1009E000200291400843194670470000B0B5E1B1BC
:1009F0004FF0000C02EB4C0432F81C300CF1020CEE
:100A000064888C4523F0030324F0030450F803E0CA
:100A10000559C55040F804E003440444D3F804E009
:100A200065685D60C4F804E0E4D3B0BD2DE9F0472B
:100A3000B0F800A0984691460C460746012A0ED110
:100A4000BAF1000F42D0261D554600BF31684FF065
:100A50000040FFF7DBFB46F8080B013DF6D1BAF189
:100A6000FF0F0CDDBAF5806F13DBBAF5805F27D07E
:100A7000BAF5006F14D0BAF5806F1CD026E0BAF139
:100A80003F0F12DCBAF1100F15D0BAF1200F07D0CA
:100A90001CE0BAF5807F03D0BAF5007F10D015E0D6
:100AA0003846214600F084F910E0BAF1400F07D033
:100AB000BAF1800F0AD13846214600F037F805E038
:100AC0007A6820465146012300F034FDB8F1000F4A
:100AD00004D0BA68B9892046FFF788FFB9F1010F41
:100AE00022D15046FFF70CFD01464FF07E50FFF734
:100AF000C5FBBAF1000F08BFBDE8F087064600BF8E
:100B0000D4E900173046FFF787FB206030463946AE
:100B1000FFF782FB01464FF00040FFF777FB606074
:100B20000834BAF1010AEBD1BDE8F0872DE9F04FA6
:100B30009BB00288059101EB8201149101904068FD
:100B40000021B1EBD20F04904FEA5200029000F066
:100B50001D81D008029A05994FF0000A404201EB2E
:100B600082010391149901EB820113911290059D6A
:100B700055F80A000A90149A52F80A10144609917E
:100B8000FFF7F2FA139B05EB0A0703EB0A0153F890
:100B90000AB04A68119108928A68C9681A92179136
:100BA000DDF80C9009EB0A0659F80A807168159176
:100BB000B1681691F168189104EB0A01CDF82CB0D8
:100BC000CDF8308019914A688C68C96845F80A00E8
:100BD0007868BD6807920E9410910690F8680D959C
:100BE0000F90FFF7C1FAF86028462146FFF7BCFADC
:100BF000079C069DB86028462146FFF7B5FA786045
:100C000040465946FFF7B0FA49F80A00DDE91710E7
:100C1000FFF7AAFAF06016981A99FFF7A5FADDF81F
:100C20002080B06015984146FFF79EFA7060DDE9BC
:100C30000910FFF7EBFA074628462146FFF7E6FAC8
:100C4000049E0446384656F80A904946FFF7E4FAEF
:100C500006EB0A0B05462046DBF804603146FFF739
:100C6000DBFA01462846FFF77FFA149941F80A009B
:100C700020464946FFF7D0FA044638463146FFF78A
:100C8000CBFA01462046FFF7C1FA19994860DDE921
:100C90000B01FFF7BBFA159904464046FFF7B6FA79
:100CA000054620463146FFF7B7FA0746284649462B
:100CB000FFF7B2FA01463846FFF7A8FA139941F850
:100CC0000A0028463146FFF7A7FA0546204649465E
:100CD000FFF7A2FA2946FFF747FADDF84490C9F872
:100CE0000400DDE90D01FFF791FA0646DDE90F0189
:100CF000FFF78CFADBE9028B07464146FFF78CFAD7
:100D0000044630465946FFF787FA01462046FFF76A
:100D10007DFA199D4146E8603046FFF77DFA0446AA
:100D200038465946FFF778FA01462046FFF71CFA85
:100D3000A8601A981699FFF769FA0446DDE91701C9
:100D4000FFF764FA59460646FFF766FA074620465B
:100D50004146FFF761FA3946FFF706FAC9F80C0079
:100D6000204659464F46FFF757FA0446304641465B
:100D7000FFF752FA01462046FFF748FAC9F8080083
:100D800012980AF1100A01307FF4F0AE029C059827
:100D9000049A0223214600F0CDFB0198214602234C
:100DA000426814981BB0BDE8F04F00F0C3BB0000D0
:100DB0002DE9F04FB3B0834600880C4662684FEAD5
:100DC000500A2D90206801EB8A0858F82A102E91BD
:100DD0002C902B92FFF7C8F954F82A1032903091DA
:100DE000FFF7C2F908EB8A0555F82A102F91FFF793
:100DF000BBF905EB8A01D5F80490D8F80470059189
:100E00004E68DBF80410CDF810B02060069149461A
:100E1000DDF8ACB05846FFF7A7F939463190FFF737
:100E2000A3F93146FFF7A0F960602C982E99FFF7DF
:100E3000EDF939462E90FFF797F93146FFF7E6F9BD
:100E400044F82A00584649462394FFF7DFF9DDF8B5
:100E5000C09004464946FFF7D9F9DDF8BCB05946C1
:100E6000FFF782F9C8F8040032984946FFF7CEF937
:100E70005946FFF7CBF9CDF80C8048F82A003946DF
:100E80003198FFF7C3F93146FFF7C0F968602E9833
:100E90003946FFF7BBF93146FFF766F945F82A00F6
:100EA000204649460295FFF75FF95946FFF7AEF92C
:100EB0000599002700234FEA8A0548606FF0030078
:100EC00000EB8A012B916FF0070101EB8A0230924F
:100ED0006FF001022D9E31934FEACA0302EB960296
:100EE000A7EB52022E9200EBCA022A9201EBCA0231
:100EF000329201EB0A122F9200EB0A1229920AEBAE
:100F00004A0201EB820100EB8200970028912790B2
:100F1000B008002101902D9100212C9187E100BFA4
:100F2000CDE91565DDF88C902A9809EB00060C9642
:100F30002B9809EB000A279809EB00011291096828
:100F4000299809EB000507F118001E95139002F18E
:100F500010000F9004F1080014970790DAF80000D1
:100F60000A9010910D92FFF7FFF8316811902691C9
:100F7000FFF7FAF829682591FFF7F6F82F9F59F83F
:100F800007200B922F97329E59F806202492329612
:100F9000289959F801100991309D59F80530CAF87F
:100FA0000000184608933095FFF7DEF859F8061050
:100FB0000E90FFF7D9F859F80710FFF7D5F849F860
:100FC00005000798209DD0F800A028465146FFF75D
:100FD00023F9E468229F064638462146FFF71CF9AC
:100FE00001463046FFF7C0F8C8F8000038465146C1
:100FF000FFF712F9064628462146FFF70DF901468C
:101000003046FFF703F9CBF80000DDE90801FFF7F0
:10101000FDF8209005460A981099FFF7F7F82290FE
:101020000646DDE92510FFF7F1F801461090284645
:10103000FFF79AF8DDF89080054630464146FFF705
:10104000E5F8DDF82CB05946FFF78EF82146064644
:10105000FFF7E2F8074628465146FFF7DDF801465C
:101060003846FFF7D3F80C99086028462146FFF769
:10107000D3F8044630465146FFF7CEF82146FFF735
:1010800073F832991F9F49F801000F98D0F800A01B
:1010900038465146FFF7C0F805460D98219C466931
:1010A00020463146FFF7B8F801462846FFF75CF8BE
:1010B0001899086020465146FFF7AEF805463846B5
:1010C0003146FFF7A9F801462846FFF79FF8179920
:1010D00008600E984146FFF799F85946FFF796F8D1
:1010E000054611982699FFF791F82599FFF78EF894
:1010F00051460746FFF790F801464FF00040FFF7D2
:1011000085F8044628463146FFF786F80146204612
:10111000FFF77CF81299086028465146FFF77CF8E3
:10112000044638463146FFF777F82146FFF76EF858
:10113000DDF8A0A0159C49F80A001398D0F80080AB
:1011400020464146FFF768F806461498169FC56981
:1011500038462946FFF760F801463046FFF704F8A5
:101160001999086038464146FFF756F8064620466A
:101170002946FFF751F801463046FFF747F81A991C
:10118000086010982099FFF741F8249906465846C0
:10119000FFF73CF82299FFF739F829460746FFF791
:1011A0003BF8044630464146FFF736F801462046F4
:1011B000FFF72CF81E99086030462946FFF72CF8F7
:1011C000044638464146FFF727F82146FEF7CCFF94
:1011D0002F9949F801002B9808382B90309808383F
:1011E00030902E9801302E902A9808382A90329804
:1011F000083832905046AAF10800289027980838FD
:1012000027900846A1F108002F90299808382990C6
:101210003198083031902D9810302D902C9818303E
:101220002C901B9F1D9B1C9D083708330835239C61
:10123000319904EB010AE618DAF80800DAF80C90A4
:1012400022901D93159656F8081F2091FEF78CFFEB
:1012500004EB050826901C95CDF8508058F8081F1F
:101260002591FEF781FF1B972744169757F8081F13
:101270002491FEF779FF199757F8041FC3465BF8CE
:10128000045F1E91189656F8044FCAF808004846A5
:1012900021461796FEF768FFDBF800102190FEF755
:1012A00063FF39681A97FEF75FFFCAF80C002298AF
:1012B0002099FEF7ABFF29460646AA46FEF754FFE3
:1012C0001E9D2946FEF7A2FF209048462146FEF7C4
:1012D0009DFF259F04463946FEF798FFDDF8909064
:1012E0004946FEF741FF229039462698FEF78EFFC9
:1012F0004946FEF78BFF1F9051462198FEF786FF67
:101300002946FEF783FF219030465146FEF77EFFC7
:101310002946FEF729FF064620463946FEF724FFF8
:101320004946FEF773FF054606982C9947182D99F4
:101330004218319944182E9800287FF4F1ADD4E971
:1013400002949246329449462298FEF765FFDDF8F2
:1013500080B0804621465846FEF75EFF0146404673
:10136000FEF754FFDDF850804946C8F80C00584697
:10137000FEF752FF044622983299FEF74DFF0146D0
:101380002046FEF7F1FEC8F80800DAE9048ADDF825
:1013900084B058464146FEF73FFF1F9C81465146A8
:1013A0002046FEF739FF01464846FEF72FFFDDF8DD
:1013B00054904146C9F80C002046FEF72DFF8046A8
:1013C00058465146FEF728FF01464046FEF7CCFE40
:1013D000C9F808002846D7E906482146FEF71CFF51
:1013E000074630464146FEF717FF01463846FEF7EE
:1013F0000DFF169F2146F8603046FEF70DFF0446AC
:1014000028464146FEF708FF01462046FEF7ACFE9F
:10141000019DB8602398069A0423294600F08AF8B3
:10142000049C039829460423626800F083F86268EC
:1014300002982946042300F07DF862680598294641
:10144000042333B0BDE8F04F00F074B82DE9F04349
:1014500081B00546002090460C46B0EB920F4CD070
:101460004FEA9800C0F10009D5E900070146FEF7F0
:10147000D3FE064638463946FEF7CEFE01463046D4
:10148000FEF772FE03F0E6F92060D5E90206014698
:10149000FEF7C2FE074630463146FEF7BDFE014666
:1014A0003846FEF761FE03F0D5F96060D5E9040621
:1014B0000146FEF7B1FE074630463146FEF7ACFE68
:1014C00001463846FEF750FE03F0C4F9A060D5E9A6
:1014D00006060146FEF7A0FE074630463146FEF7F7
:1014E0009BFE01463846FEF73FFE03F0B3F9E0608D
:1014F0001034203519F10109B6D118F0030016D0C7
:10150000474200BFD5E900060146FEF785FE80464A
:1015100030463146FEF780FE01464046FEF724FE87
:1015200003F098F944F8040B08350137EAD101B00B
:10153000BDE8F0832DE9F04FC3B00C460392CDE92E
:1015400001031891E208DDF804B0E600D500059229
:10155000A5EBD4002095C000429010011D905001D1
:10156000199002EB420002EB8202C3000701002047
:101570001C93D300CDE91A64CDE91E734190DDF8C8
:101580006490DDE91C785BF805005BF8031035908A
:101590003691FEF7E9FDDDF808A104462F905BF8CF
:1015A00007005BF80A1034903391FEF7DDFD014629
:1015B0002D902046FEF7D8FD06465BF80910DBF8B3
:1015C000000038913790FEF7CFFD1E9904462B900E
:1015D0005BF808005BF801103D903C91FEF7C4FDFC
:1015E00001462A902046FEF7BFFD31460446FEF72D
:1015F000BBFDCBF8000020463146FEF707FE4BF856
:1016000009002098584442683E901F9858443192EF
:101610004168409010463091FEF7A6FD0BEB0A01A1
:10162000044626900BEB07003F9040683B914968C9
:101630002E902C91FEF798FD824620465146FEF7EB
:1016400093FD0BEB09040746DBF804000BEB0806DF
:101650006168279639903A91FEF786FD80461E987C
:101660007268584429924168289010463291FEF7DA
:101670007BFD064640463146FEF776FD39468146FB
:10168000FEF772FDCBF8040048463946FEF7BEFD72
:10169000606026985146FEF7B9FD0746DDE92A103D
:1016A000FEF7B4FD39460446FEF75EFD1D994BF882
:1016B000010020463946FEF7A9FD1E994BF80100AE
:1016C0002F982D99FEF7A2FD044640463146FEF7BD
:1016D0009DFD21460546FEF799FD27994860204665
:1016E0002946FEF741FD28994860DDE93501FEF7FE
:1016F0008DFD36900446DDE93310FEF787FD014687
:1017000035902046FEF782FD40F2F341C3F6357175
:10171000FEF782FD0446DDE93010FEF777FD054651
:1017200034902E982C99FEF771FD81462846494643
:10173000FEF71AFD40F2F341C3F63571FEF76CFD7A
:101740000546DDE93701FEF761FD21460646FEF755
:101750000BFD074629983299FEF758FD2946804629
:10176000FEF702FD824638465146FEF7FDFC209901
:101770004BF80100384640F2F3475146C3F635773F
:10178000FEF744FD42994BF8010030462146FEF732
:101790003DFD044640462946FEF738FD05462046F5
:1017A0002946FEF7E1FC1F994BF801002046294627
:1017B000FEF72CFD1C994BF80100DDE93510FEF712
:1017C000D3FC3946FEF728FD804634984946FEF79B
:1017D0001DFD3946FEF720FD8146DDE93C10FEF790
:1017E00015FD41460646FEF7BFFC0746DDE9390117
:1017F000FEF70CFD49460446FEF7B6FC39460546A1
:10180000FEF704FD3E99486038462946FEF7ACFCD9
:101810003B99486030464146FEF7F8FC05462046B5
:101820004946FEF7F3FC29460446FEF7EFFC4099D3
:10183000486028462146FEF797FCDDE91F35DDE9C3
:101840001A643F9A189950604198B34420448842E2
:10185000FFF494AE402CC0F0AD820298DDF804C0D5
:1018600000244FF0010B80B204900598C0EBC0003B
:101870004FEAC008CDF824800498039EE146CDF8D5
:101880001CB0CDF81890044456F83400C4EBC40ED4
:1018900004EB840C620104EB44010894179056F8A1
:1018A0003E00169056F83C001590B0580432B258DD
:1018B000149056F83100119213902001021D3758F0
:1018C000B058E200043212974F461090B0580A0107
:1018D0000F90B0580E904FEACE00043030580D9063
:1018E000101D30580C904FEACC00043030580B904B
:1018F000C800043030580A90FA187819CDF800B1B1
:10190000429741908068916891463E923590369119
:10191000FEF72AFC04462A9042981C9900EB010B22
:101920004298DBF80820CDF8FCB000EB080ADAF8A2
:10193000081010463392CDF8F4A03491FEF714FC51
:1019400001462B902046FEF70FFC07462390429855
:101950001999084481682190429882684298389188
:10196000D0F80C8010463792CDF8E880FEF7FCFBEB
:10197000054629901D9842990C1842981E99A26814
:1019800027944618B16810463C922C963B91FEF77E
:10199000EBFB014628902846FEF7E6FB39462290ED
:1019A000FEF7E2FB429988604198D9F80C10C068B4
:1019B0002F913090FEF7D8FB0546DBF80C00DAF8E3
:1019C0000C102E902D91FEF7CFFB01462690284655
:1019D000AA46FEF7C9FBDDF8849005464046D9F8D3
:1019E0000C103991FEF7C0FBF16807462590E068BE
:1019F00032903191FEF7B8FB014624903846FEF74D
:101A0000B3FB29460746FEF7AFFB4299C860DDE904
:101A10002201FEF7FBFB044638462946FEF7F6FB9B
:101A2000149E834659463046FEF7F6FB119D074645
:101A300021462846FEF7F0FB01463846FEF7E6FB56
:101A4000C9F80C00304621464F46FEF7E5FB044638
:101A500028465946FEF7E0FB01462046FEF784FB88
:101A6000C9F80800DDE92A01FEF7D0FB26990546F2
:101A70002B905046FEF7CAFB8146DDE92810FEF7A1
:101A8000C5FB49468046FEF76FFB0446DDE924109E
:101A9000FEF7BCFB29468246FEF7B8FB129F0646BE
:101AA00031463846FEF7B8FBDDF840B00546214622
:101AB0005846FEF7B1FB01462846FEF7A7FB279DD7
:101AC0002146E8603846FEF7A7FB044658463146F3
:101AD000FEF7A2FB2146FEF747FBA86040464946B9
:101AE000FEF794FB04462B985146FEF73DFB0E9FF4
:101AF000804641463846FEF78FFB0C9D0646214640
:101B00002846FEF789FB01463046FEF77FFB2C9EF8
:101B10002146F0603846FEF77FFB044628464146E2
:101B2000FEF77AFB2146FEF71FFBB060DDE93501C9
:101B3000FEF76CFB8046DDE93301FEF767FB834669
:101B400040465946FEF762FB40F2F34AC3F6357A47
:101B50005146FEF761FB36900446DDE92F10FEF793
:101B600055FB0646DDE92D10FEF750FB07463046D3
:101B70003946FEF7F9FA5146FEF74EFB3590054619
:101B8000DDE93701FEF742FB21463890FEF7ECFA1B
:101B900030900446DDE93110FEF738FB29463790D6
:101BA000FEF7E2FA014632902046FEF7DDFA814662
:101BB00040465946FEF7D8FA5146FEF72DFB04463B
:101BC000349030463946FEF721FB5146FEF724FBA0
:101BD00033900546DDE93B10FEF718FB21463C90AB
:101BE000FEF7C2FA0646DDE93910FEF70FFB29467B
:101BF0003B90FEF7B9FA31460746FEF707FB179D03
:101C0000824651462846FEF707FBDDF83CB0044605
:101C100049465846FEF700FB01462046FEF7F6FA15
:101C2000DDF804814946C8F80C002846FEF7F4FAAE
:101C3000044658465146FEF7EFFA01462046FEF7A5
:101C400093FAC8F8080030983299FEF7DFFA044694
:101C500030463946FEF788FA169D804641462846AA
:101C6000FEF7DAFA0D9E074621463046FEF7D4FA13
:101C700001463846FEF7CAFA3D9F2146F8602846DD
:101C8000FEF7CAFA044630464146FEF7C5FA014659
:101C90002046FEF769FAB86038983699FEF7B6FA2A
:101CA0000446419037983599FEF7B0FA01463D90C9
:101CB0002046FEF759FA07463C983499FEF7A6FAF3
:101CC00082463B983399FEF7A1FA51468346FEF7C8
:101CD0009DFA159D064631462846FEF79DFADDF829
:101CE0002C80044639464046FEF796FA01462046C7
:101CF000FEF78CFADDF8F8903946C9F80C00284652
:101D0000FEF78AFA044640463146FEF785FA014658
:101D10002046FEF729FAC9F8080041983D99DDF8F8
:101D20002480FEF773FA044650465946FEF71CFA23
:101D3000139F834659463846FEF76EFA0A9D0646BB
:101D400021462846FEF768FA01463046FEF75EFA5D
:101D50003F9E2146F0603846FEF75EFA044628466C
:101D60005946FEF759FA01462046FEF7FDF9DDF81F
:101D700000B1429FDDE91F351B9AB0601A9818998F
:101D8000934407448B45FFF4B7ADDDF81CB0DDF894
:101D900018C00598089C0BF1010B0CF1080C834549
:101DA000FFF46AAD0298059C3F2A4FEAC0000290FA
:101DB0003FF6C8AB43B0BDE8F08F000070B50446F5
:101DC00000688168C943C90717D1816821F0010102
:101DD000816000F053FD05460AE000BF00F04EFDB3
:101DE000401B022804D920688068C043C00706D081
:101DF00020688068C043C007F0D0002070BDA06A92
:101E000040F01000A062E06A40F00100E0620120B2
:101E100070BD10B50146406A826A12F0500F05D0BD
:101E2000006A026BBDE8104008461047816A41F421
:101E30000071816201688968C1F3424107290CD1B0
:101E4000017B51B9816A21F480718162816AC90480
:101E500003D4816A41F00101816200F08DF910BD67
:101E600010B5406A816A41F040018162C16A41F067
:101E70000401C16200F087F910BD10B5406A00F09E
:101E800081F910BDF8B50026044600960068816807
:101E9000C943C9072DD0816841F00101816016480E
:101EA00016490068B0FBF1F000E0401E00900028E9
:101EB000FBD100F0E3FC054616E000BF00F0DEFCBD
:101EC000401B022810D920688068C043C0070BD08F
:101ED000A06A40F01000A062E06A40F00100E062F9
:101EE00084F824600120F8BD20688068C043C007E2
:101EF000E4D10020F8BD00001C00002040420F008B
:101F0000FEE70000014800F0A1BA00006C010020CB
:101F1000014800F09BBA00000802002030B590F89C
:101F200040500124AC40C56B6C600468636043683A
:101F3000102B036803D099600068C26030BD9A60BE
:101F40000068C16030BD704772B6FEE72DE9F04110
:101F5000124D1148124F0124C5F8040007EB840606
:101F60004046D6F8001EFEF721FB02D2D6F8008EBE
:101F70006C80641CA4B2802CF0D36888FEF7C0FA91
:101F800004466FF007016868FEF7B6F92146FEF7D0
:101F900043F9A860BDE8F08100401C460400002021
:101FA000DC020020F8B500250446009590F82400D6
:101FB00001280BD0012084F824002046FFF7FEFE04
:101FC0002046FFF75FFF060002D050E00220F8BD78
:101FD000A06A20F4885040F00200A062022000F0C5
:101FE000EBFC25490968B1FBF0F0400000E0401E21
:101FF00000900028FBD12068816841F008018160D1
:1020000000F03CFC074608E000F038FCC01B0A2842
:1020100003D920688068000715D42068806800070D
:10202000F2D42068816841F00401816000F026FC50
:10203000074612E000F022FCC01B0A280DD92068D8
:102040008068400709D5A06A20F0020040F0100027
:10205000A06284F824500120F8BD20688068400701
:10206000E8D4A06A20F0020040F00100A06284F8E9
:1020700024503046F8BD00001C000020F8B50024B4
:10208000009490F824202546012A12D0012280F8DD
:1020900024204A681F23072A0DD20668776B521E38
:1020A00002EB820293409F430B6893401F43776388
:1020B00019E00220F8BD06680D2A0AD2376BD21F3C
:1020C00002EB820293409F430B6893401F433763A8
:1020D00009E0F76A0D3A02EB820293409F430B68D6
:1020E00093401F43F7620A68072306680A2A0AD347
:1020F000F7680A3A02EB420293409F438B68934091
:102100001F43F76008E0376902EB420293409F43A8
:102110008B6893401F4337610A68102A01D0112A47
:1021200020D1124B02689A4217D193681B0219D42E
:10213000936843F4000393600968102912D10C4995
:102140000C4A0968B1FBF2F101EB8101490000E0A2
:10215000491E00910029FBD104E0816A41F0200171
:102160008162012480F824502046F8BD00240140FB
:102170001C00002040420F000149012008807047E8
:1021800004000020704770470068C06C7047000072
:102190002DE9F0414FF0000704003D467ED0A06AD3
:1021A000002628B9E66284F82460204600F07EF814
:1021B0002046FFF703FEA16AC90600D420B1A06A39
:1021C00040F01000A06269E0A16A21F4885141F05A
:1021D0000201A1626268E169237B0A4347EA430185
:1021E0000A43A1684FF48077B94209D0012907D08A
:1021F0005FF0000194F814C0BCF1010F02D00AE0B6
:102200003946F7E7F3B1A36A43F02003A362E36A18
:1022100043F00103E3622368D3F804C02CF4694C53
:102220004CEA010CC3F804C021688B68DFF870C069
:1022300003EA0C0313438B60A168B9420BD0012958
:1022400009D00CE0DFF85CC0A3690CEB43330B430F
:1022500043F40061DFE7218A0D05A5F580152168AB
:10226000CB6A23F470032B43CB62216889680E4B41
:102270001940914208D1E662A16A21F0020141F0C1
:102280000101A162BDE8F081A06A20F0020040F0E7
:102290001000A062E06A40F00100E0620120F1E776
:1022A000FDF7E1FF00E0FFFFFE0E1FFF70B586B0F7
:1022B00000260546009601960296039600681B4983
:1022C000884230D11A49886940F400708861886971
:1022D00000F400700490886940F004008861886907
:1022E000694600F004000490022000900320019051
:1022F000104800F0CDF9114C0F48C4E900068020C9
:10230000C4E9026040002061800060612020A0617B
:102310004FF44050E061204600F042F908B1FFF769
:1023200013FE2C62656206B070BD000000240140FF
:102330000010024000080140080002406C0100202B
:102340002DE9F047894604463B4900683B4F0E1D86
:102350009046884201D0B84207D1306810F4702FFF
:1023600003D001252846BDE8F08794F82400012811
:102370000CD0012084F824002046FFF783FD0500DF
:102380004FF0000004D084F82400EBE70220EAE7D5
:10239000A16A40F60162914341F48071A162216813
:1023A000B94218D1326812F4702F14D0A16A41F4E6
:1023B0008011A1623168490505D5A16A21F4005157
:1023C00041F48051A162A16AC9040AD5E16A21F0F1
:1023D0000601E16206E0A26A22F48012A262496864
:1023E000E9E7E06284F82400216A15488862216ADE
:1023F0001448C862216A1448086321686FF002001B
:1024000008602068816841F48071816021684346DA
:102410004A464C31206A00F0F1F820688168C1F327
:1024200042410729816803D041F48011816099E716
:1024300041F4A001FAE70000002401400028014017
:10244000131E00087B1E0008611E00082DE9F05FC6
:10245000C16B0C6801680B68D0F840C0042202FA16
:102460000CF2494DDFF824A1494E4A4FDFF828B15C
:10247000DFF828E122422CD05A072AD50A689206B2
:1024800003D40A6822F004020A600168A94201D15B
:10249000042219E0514501D1402215E0B14202D198
:1024A0004FF4806210E0B94202D14FF480420BE059
:1024B000594502D14FF4802206E0714502D14FF414
:1024C000800201E04FF080622F4908394A60C16AFA
:1024D0003BE04FF0020808FA0CF818EA040F4FF03E
:1024E00000094FF0010235D05FEA837832D50B68DE
:1024F0009B0605D40B6823F00A030B6080F82120AB
:102500000168A94201D1022219E0514501D12022DE
:1025100015E0B14202D14FF4007210E0B94202D18D
:102520004FF400520BE0594502D14FF4003206E05F
:10253000714502D14FF4001201E04FF000721249D0
:1025400008394A6080F82090816A00291AD0BDE8D5
:10255000F05F0847082505FA0CF5254212D01B0745
:1025600010D50B6823F00E030B6090F84010C36B7E
:1025700002FA01F15960826380F8212080F82090EE
:10258000016BE2E7BDE8F09F080002401C0002403A
:102590003000024044000240580002406C000240FB
:1025A00030B528B308C8134914221944B1FBF2F11D
:1025B0008900C16310498163022141771A6843F69B
:1025C000F0718A43D0E900142143D0E902452C433D
:1025D0002143046921434469214384692143114310
:1025E000196000214163012242770177084630BD1E
:1025F000012030BDF8FFFDBF0000024070B5044669
:1026000090F82000002501280CD0012084F820003B
:1026100094F821600020012E06D084F820000225C5
:10262000284670BD022070BD022684F82160A06398
:102630002068066826F0010606602046FFF76EFC5B
:10264000E06A00282068016802D041F00E0106E02F
:1026500021F0040101602068016841F00A01016075
:102660002068016841F001010160D9E770B50446B6
:1026700000F004F90546601C02D0044800780444C8
:1026800000F0FCF8401BA042FAD370BD10000020FF
:102690002DE9F84FDFF8B8910024A9F1040B234687
:1026A0000F2709F1040AABF1040EC9E00125A5408A
:1026B0002A40AA427DD1674ED1F804C0ACEB06088F
:1026C000B44532D014DCBCF1030F3AD009DCBCF1C4
:1026D000000F2AD0BCF1010F1CD0BCF1020F31D188
:1026E0001DE0BCF1110F17D0BCF1120F2AD119E077
:1026F000B8F5881F19D006DCB8F5803F15D0B8F5BD
:10270000801F1FD111E0B8F5001F0ED0B8F5041FCF
:1027100018D10AE0CB6815E0CB681B1D12E0CB682E
:1027200008330FE0CB680C330CE08B682BB1012B26
:102730004FF0080303D0456104E0042302E0056183
:1027400000E00023FF2A01D8064601E000F104065C
:102750004FEA840501D9A5F12005D6F8008007FAD3
:1027600005FC28EA0C0803FA05F548EA0508C6F84E
:1027700000804D68ED0062D5374DAE6946F0010628
:10278000AE61AD6924F0030605F001050095334DF7
:1027900006EB050CDCF80850A607360F07FA06F81A
:1027A00025EA0805DFF8B880404503D14FF000085E
:1027B00017E044E0DFF8AC80404502D14FF001085B
:1027C0000FE0DFF8A480404502D14FF0020808E096
:1027D000DFF89880404502D14FF0030801E04FF048
:1027E000040808FA06F848EA0508CCF808804D689D
:1027F000D9F80060ED024D4601D5164300E096433E
:102800002E604D68DAF80060AD02554601D51643DA
:1028100000E096432E604D68DBF80060AD035D4636
:1028200001D5164300E096432E604D68DEF8006047
:10283000ED03754601D5164300E096432E60641CF7
:102840000D682A46E5407FF431AFBDE8F88F0000FF
:102850000804014000001110001002400000014077
:1028600000080140000C014000100140001401402C
:102870000AB1016170470904FBE700000148806864
:10288000704700001000002002488168027811445F
:102890008160704710000020074810B5016841F0C2
:1028A00010010160032000F075F80F2000F006F819
:1028B00000F024F8002010BD0020024070B50D4D3E
:1028C00004464FF47A712878B1FBF0F00A490968A0
:1028D000B1FBF0F000F0FDFC48B9102C07D200224B
:1028E0002146501E00F036F800206C6070BD0120BB
:1028F00070BD0000100000201C0000200C4808B52E
:10290000816941F001018161816901F0010100915A
:10291000C16941F08051C161C06900F080500090F0
:102920000448416821F0E06141F00071416008BD58
:102930000010024000000140002809DB00F01F02E7
:10294000012191404009800000F1E020C0F8001111
:1029500070470000F0B40E4B1B680C46C3F3022313
:10296000C3F10705042D00D90425191D072901D23B
:10297000002300E0DB1E012606FA05F1491E214076
:1029800099409E40761E16403143F0BC01F048B994
:102990000CED00E0064900F0070208684FF6FF035F
:1029A000184040EA0220034A1043086070470000C4
:1029B0000CED00E00000FA0510B501460020234CA4
:1029C000012922D0022939D010291DD1616822683D
:1029D000D20119D51E48C1F38342C903805C0AD5D0
:1029E00061681B4AC1F34041921E515C194AB2FB17
:1029F000F1F1484301E0184948436168490203D4B2
:102A000040000321B0FBF1F010BD226AC2F30121A6
:102A1000012903D1920701D5C80310BD022905D1B0
:102A2000626A920702D549F6404010BD0329FCD1E5
:102A300021688903F9D54FF2244010BD00F02AF92E
:102A40006168C1F38131491C4900DBE70010024095
:102A50000457000800127A0000093D002DE9F843F0
:102A600005460078354CC00754D0E0690026C00008
:102A700008D4E06940F08050E061E069012600F090
:102A8000805000902E480168C90512D40168804624
:102A900041F480710160FFF7F1FE074605E000BFD9
:102AA000FFF7ECFEC01B642823D8D8F80000C0054F
:102AB000F6D5206A10F4407021D0A98801F4407145
:102AC00081421CD0206A1F49012220F440700A6014
:102AD00000220A602062C00711D0FFF7CFFE074630
:102AE00041F2883808E000BFFFF7C8FEC11B41452E
:102AF00002D90320BDE8F883206A8007F4D5206A54
:102B0000696820F44070084320621EB1E06920F03B
:102B10008050E0612878800705D56068A96820F4B6
:102B20004040084360602878C00605D56068E968C1
:102B300020F48000084360600020DBE700100240C2
:102B400000700040400442422DE9F0470F46050066
:102B500061D0434E306800F00700B84209D23068B7
:102B600020F0070038433060306800F00700B842BA
:102B700051D128683B4C810712D5400703D56068C6
:102B800040F4E06060602878000703D5606840F496
:102B9000605060606068A96820F0F00008436060E1
:102BA0002878C00728D06868012810D0216802283A
:102BB00010D0890700292EDA616821F00301014352
:102BC0006160FFF75BFE804641F288390DE02168C5
:102BD0008903EFE78901EDE7FFF750FEA0EB08015D
:102BE000494502D90320BDE8F0876068696800F0B4
:102BF0000C00B0EB810FEFD1306800F00700B84255
:102C00000BD9306820F0070038433060306800F09E
:102C10000700B84201D00120E5E72878400705D534
:102C20006068E96820F4E060084360602878000785
:102C300006D56068296920F4605040EAC1006060F0
:102C400000F038F86168084AC1F30311515CC840CC
:102C50000649086006480068FFF730FE0020C2E71A
:102C60000020024000100240145700081C00002001
:102C7000140000200448054900684968044AC1F36B
:102C80000221515CC84070471C0000200010024027
:102C9000245700080448054900684968044AC1F3FC
:102CA000C221515CC84070471C0000200010024047
:102CB000245700080E4A51680E4801F00C03042BFB
:102CC00011D0082B0FD10C48C1F38343C903C05C5A
:102CD0000AD55168084AC1F34041921E515C054A29
:102CE0005043B0FBF1F0704704494843704700007F
:102CF0000010024000127A00F256000800093D0060
:102D00002DE9F84F040070D02078C04DC00749D09D
:102D10006868C0F38100012807D06868C0F38100AB
:102D2000022809D16868C00306D52868800339D510
:102D300060680028E7D035E06068B0F5803F0BD0D0
:102D400010B1B0F5A02F11D0286820F48030286091
:102D5000286820F4802002E0286840F48030286051
:102D6000606890B1FFF78AFD06460AE0286840F4E3
:102D700080202860F0E700BFFFF780FD801B6428FB
:102D800073D828688003F7D50CE0FFF777FD064677
:102D900005E000BFFFF772FD801B6428F0D82868AB
:102DA0008003F7D420789A4E80074FF001094FF046
:102DB000000839D5686810F00C0F07D06868C0F3B8
:102DC0008100022809D16868C00306D428688007FA
:102DD00014D52069012808D110E02069B0B1C6F8E7
:102DE0000090FFF74BFD074605E00AE1FFF746FDBF
:102DF000C01B0228C4D828688007F7D528686169F5
:102E000020F0F80040EAC10028600DE0C6F800801C
:102E1000FFF734FD074604E0FFF730FDC01B022832
:102E200023D828688007F7D4207800072CD5794864
:102E3000A169D9B1C0F80090FFF720FD074604E072
:102E4000FFF71CFDC01B02280FD8686A8007F7D562
:102E500071484FF4FA510068B0FBF1F0009000BFE8
:102E60000098411E0091FAD20EE080E0C0F8008088
:102E7000FFF704FD074604E0FFF700FDC01B022832
:102E800075D8686A8007F7D42078400760D5E8696C
:102E90000027C00008D4E86940F08050E861E86984
:102EA000012700F0805000905C480168C90513D4E8
:102EB0000168834641F480710160FFF7DFFC8246C0
:102EC00006E000BFFFF7DAFCA0EB0A0064284ED84A
:102ED000DBF80000C005F5D5E06801280AD008B18C
:102EE000052813D0286A20F001002862286A20F003
:102EF000040002E0286A40F001002862E06841F224
:102F0000883B98B1FFF7BAFC82460BE0286A40F094
:102F100004002862EEE700BFFFF7B0FCA0EB0A0157
:102F200059455AD8286A8007F6D50CE0FFF7A6FC69
:102F3000824605E0FFF7A2FCA0EB0A0159454CD8F8
:102F4000286A8007F6D41FB1E86920F08050E86154
:102F5000E06988B36968C1F38101022944D002287D
:102F6000C6F8608004D0FFF789FC044638E034E0FE
:102F7000FFF784FC074604E0FFF780FCC01B022833
:102F80002BD828688001F7D4206AB0F5803F05D19E
:102F90006868A16820F4003008436860D4E908013B
:102FA0000843696821F4741108436860C6F86090AA
:102FB000FFF764FC044606E025E000BFFFF75EFC77
:102FC000001B022809D828688001F7D51BE000BF44
:102FD000FFF754FC001B022802D90320BDE8F88F3C
:102FE00028688001F4D40EE00128F7D06868226ACE
:102FF00000F48031914204D1616A00F4701088427B
:1030000001D00120EAE70020E8E7000000100240BC
:1030100000004242800442421C0000200070004038
:1030200070B5040009D0606A002540B12561656172
:10303000A56294F8510040B10CE0012070BD6068B9
:10304000B0F5827FF4D0E561F2E784F85050204675
:1030500000F040F8022084F851002068016821F057
:1030600040010160A088218900F4827001F40441CC
:103070000843A18901F400610843217C01F00201A9
:103080000843217D01F001010843218B01F4007107
:103090000843217F01F03801084394F8201001F023
:1030A00080010843218D01F4005108432168086024
:1030B000A069042101EA1040216848602068C169C4
:1030C00021F40061C1616565012084F85100002090
:1030D00070BD000070B586B00025064600950195CC
:1030E0000295039500681A4988422ED119498869CA
:1030F00040F480508861886900F4805004908869A9
:1031000040F0040088618869694600F0040004907A
:10311000A020009002200190032003900E48FFF7AA
:10312000B7FA0F4C0D4820601020C4E9010580203B
:10313000C4E903056561A5612046E561FFF730FA42
:1031400008B1FEF701FFB464666206B070BD00000E
:1031500000300140001002400008014030000240F1
:10316000080200202DE9F84F044690F85000002690
:10317000984615468A4601280CD0012784F85070DD
:10318000FFF77CFB814694F85100B346012804D038
:1031900002269AE00220BDE8F88FBAF1000F6FD046
:1031A000002D6DD0032084F85100C4F854B0C4F849
:1031B00030A0A586E586C4F838B0A4F83CB0A4F8E1
:1031C0003EB0C4F844B0C4F840B0A068B0F5004FB9
:1031D00009D12068016821F0400101602068016880
:1031E00041F48041016020680168490603D4016808
:1031F00041F040010160E068B0F5006F606803D005
:1032000058B3012D29D049E008B1012D1FD1206B01
:1032100021680088C86006E020688168890709D5B0
:10322000216B0988C160206B801C2063E08E401EEA
:10323000E0860CE0FFF722FBA0EB0901414503D338
:10324000B8F1FF3F03D006E0B8F1000F03D0E08EE5
:103250000028E1D125E0032635E0206B21680078C5
:10326000087306E02068816889070AD5216B097810
:103270000173206B401C2063E08E401EE0860DE051
:103280001FE0FFF7FBFAA0EB0901414503D3B8F1BA
:10329000FF3F03D0DFE7B8F1000FDCD0E08E00285D
:1032A000E0D14A464146204600F0E3FA08B120202A
:1032B0006065A06818B92068C16880680090606D7A
:1032C00008B1012601E084F8517084F850B030460E
:1032D00061E710B5401EB0F1807F01D3012010BD21
:1032E0004FF0E02460610F21601700F099FC00208E
:1032F000A06107202061002010BD000070B590F88B
:103300003C20012A26D0012480F83C40022280F88B
:103310003D2003685A689D6822F070060A683243AF
:103320005A600D4B02689A4208D0B2F1804F05D026
:103330000A4B9A4202D00A4B9A4204D1496825F0BE
:1033400080031943916080F83D40002180F83C10D3
:10335000084670BD022070BD002C014000040040F2
:103360000008004010B5040003D094F83D0010B1EF
:1033700007E0012010BD002084F83C00204600F04A
:103380001FF8022084F83D00211D206800F01EFB7C
:10339000012084F8460084F83E0084F83F0084F859
:1033A000400084F8410084F8420084F8430084F827
:1033B000440084F8450084F83D00002010BD000062
:1033C00008B500680649884208D10648C16941F03D
:1033D0000201C161C06900F00200009008BD000058
:1033E000000400400010024090F83D10012901D077
:1033F00001207047022180F83D1000680B49884287
:1034000008D0B0F1804F05D00949884202D009495F
:10341000884204D1816801F00701062903D00168C0
:1034200041F001010160002070470000002C0140C4
:10343000000400400008004070B5044690F83C00CD
:103440000025012817D0012684F83C60022084F86A
:103450003D002068826822F0770222F47F42826079
:103460000868502838D00DDC20284FD005DC90B3F8
:10347000102811D14AE0022070BD302846D04028E3
:103480000AD13BE060282FD070280DD0B0F5805FC6
:1034900003D0B0F5005F12D0012584F83D60002014
:1034A00084F83C00284670BDCB68D1E90121206832
:1034B00000F0C2FA2068816841F0770109E0CB682A
:1034C000D1E90121206800F0B7FA2068816841F451
:1034D00080418160E1E719E0CA684968206800F02E
:1034E000BDFA5021206806E0CA684968206800F0EB
:1034F000C6FA6021206800F0A9FACEE7CA684968D8
:10350000206800F0ABFA40212068F4E72268014609
:103510001046F0E770B5040004D094F8410000258F
:1035200010B106E0012070BD84F84050204600F044
:1035300023F8242084F841002068C16821F4005158
:10354000C160204600F0AEFA2068016921F4904184
:1035500001612068416921F02A0141612068C16848
:1035600041F40051C1606564202084F8410084F872
:1035700042006563002070BD30B585B00024009422
:1035800001940294039400681449884224D1144899
:10359000816941F480418161816901F48041049134
:1035A000816941F00401816180690E4D00F00400E1
:1035B00004904FF4007000900220019003200390CB
:1035C00069462846FFF764F82815CDE900046946E6
:1035D00028460294FFF75CF805B030BD0038014082
:1035E00000100240000801402DE9F843044690F81D
:1035F00041001F4616460D46202802D00220BDE895
:10360000F8837DB176B100206064212084F8410008
:10361000FFF734F9A6848046E684A068B0F5805FA1
:1036200002D003E00120EAE7206910B12E46002510
:103630000EE000260CE08021204600F08FFAA0B9B1
:10364000AEB116F8010B21684860E08C401EE084A2
:10365000E08C43464FF0000200970028EBD14FF07A
:103660004001204600F07AFA30B10320C7E735F870
:10367000020BC0F30800E6E7202084F84100002098
:10368000BDE7FEE73EB50024104800940194029483
:103690000D498460016004730475012505614FF4D0
:1036A00000214460C161FEF773FD08B1FEF74CFCD8
:1036B0000095CDE9015469460448FEF7DFFC002877
:1036C00001D0FEF741FC3EBD002401403C0100203A
:1036D0000D4808B5416941F001014161406900228E
:1036E00000F00100009011460B20FFF733F90B208A
:1036F000FFF722F9002211460D20FFF72BF9BDE854
:1037000008400D20FFF718B90010024070B586B0D0
:10371000002419480094019402940394816941F0B3
:1037200020018161816901F020010491816941F0EA
:10373000040181618069114E00F0040004900022B0
:1037400058213046FFF794F808200125CDE90005FF
:103750000320CDE9024069463046FEF799FF50202C
:10376000CDE900050220CDE9024069463046FEF76A
:103770008FFF06B070BD000000100240000801403D
:10378000114810B50F4901604FF4827141604FF448
:103790000041816000210222C0E90312012242613E
:1037A000520282612022C0E90721416281620A211E
:1037B000C162FFF735FC002803D0BDE81040FEF7DA
:1037C000C3BB10BD00300140B001002010B586B071
:1037D000002417480094019402940394049413491C
:1037E000059401604721C0E901140921C0E90314CF
:1037F0008461FFF7B7FD08B1FEF7A6FB4FF48050D8
:10380000009069460A48FFF717FE08B1FEF79CFBD7
:103810002020CDE9040404A90548FFF76FFD002826
:1038200001D0FEF791FB06B010BD0000000400407F
:103830004C0200200C4810B50A4901604FF4E131F8
:103840004160002181600C22C160C0E904128161E5
:10385000C161FFF75FFE002803D0BDE81040FEF70E
:1038600073BB10BD0038014094020020FEE7FEE764
:10387000704738B50B46009204460022802100F0C4
:1038800009F8002804D0606D40F020006065032036
:1038900038BD00002DE9F8431E469146884604468F
:1038A000089DFEF7EBFF401B351AFEF7E7FF0746C2
:1038B00025480068C0F3CB30684338E0701C37D02F
:1038C000FEF7DCFFC01BA84203D215B1009860B31D
:1038D0002CE02068416821F0E00141606068B0F5AB
:1038E000827F0BD1A068B0F5004F02D0B0F5806F99
:1038F00004D12068016821F040010160A06AB0F5A0
:10390000005F09D12068016821F40051016020683E
:10391000016841F400510160012084F85100002049
:1039200084F850000320BDE8F8830025401E009075
:103930002068816838EA010004D000214945BDD1E2
:103940000020F0E70121F9E71C0000207047FEF796
:103950009BBF30B593B028216846FCF7FAFB1421D1
:103960000AA8FCF7F6FB002501200F95109511958C
:10397000010412958DE8230004904FF4E010CDE986
:103980000810022407946846FFF7BAF908B172B626
:10399000FEE70AA90F2081E831004FF48060CDE9ED
:1039A0000D0502210AA8FFF7CFF808B172B6FEE7AD
:1039B0004FF4004011900F940FA8FFF74FF8002824
:1039C00001D072B6FEE713B030BD7047F0B50268A3
:1039D000164B174C174D4FF08047984205D0B84210
:1039E00003D0A04201D0A84203D122F070064A6859
:1039F0003243984205D0B84203D0A04201D0A84239
:103A000003D122F44074CA6822434C6922F0800238
:103A1000224302608A68C2620A688262984201D1C7
:103A20000969016301214161F0BD0000002C0140E2
:103A3000000400400008004010B5846842EA0322F8
:103A400024F47F440A432243826010BD826822F03E
:103A500070020A4342F007018160704710B5036AA3
:103A6000046A24F001040462846924F0F00444EA46
:103A7000021423F00A020A438461026210BD10B5E9
:103A8000036A046A24F010040462846923F0A0032A
:103A900024F4704444EA023243EA01118261016273
:103AA00010BD000070B5044600680169E26821F4A9
:103AB0004051114301612169A068084361690843CD
:103AC0002168CA6841F20C639A430243CA602068C5
:103AD0004169A26921F44071114341611E49206886
:103AE000884202D1FFF7D6F801E0FFF7C3F800EBF8
:103AF000C00101EB0012606864218000B2FBF0F3AA
:103B0000B3FBF1F36FF018067343B2FBF0F5B2FBB1
:103B1000F0F605EB8305322303EB0515B5FBF1F554
:103B2000B6FBF1F605F0F00505EB0615B2FBF0F675
:103B3000B2FBF0F0B0FBF1F06FF01802504306EB6F
:103B4000800003EB0010B0FBF1F0216800F00F00E3
:103B50002844886070BD0000003801402DE9F04124
:103B6000984617460E460446069D27E0681C25D059
:103B70002DB1FEF783FEA0EB0800A8421ED92068F5
:103B80000C3050E8001F21F4D07140E80012002AE8
:103B9000F5D12068143050E8001F21F0010140E801
:103BA0000012002AF5D1202084F8410084F8420058
:103BB000002084F840000320BDE8F0812068006800
:103BC00036EA000004D00020B842CFD00020F3E74E
:103BD0000120F9E7FEE700000FB4054B10B503A97B
:103BE000044A029800F004F910BC5DF814FB0000D0
:103BF000B1470008200000200FB4084B10B504A9FD
:103C000002AA039800F0F4F8044602A9002000F08C
:103C100086FC204610BC5DF814FB00001F45000820
:103C20000907090E002804DB00F1E02080F80014E9
:103C3000704700F00F0000F1E02080F8141D70477D
:103C400002E008C8121F08C1002AFAD17047704765
:103C5000002001E001C1121F002AFBD170470000C3
:103C60000149086070470000240000202DE9FF5F33
:103C700082B00021DDE90430020DDDF840B00343DD
:103C800018D044F61050A2F2FF3242431514119896
:103C900001281FD0A5EB0B00401C5FEA000A4FF083
:103CA00000064E4FDFF83891B046504615D5CAF1A0
:103CB000000413E0119801244AA3012801D16FEAFE
:103CC0000B010298119AC0E90031C0E9024206B026
:103CD000BDE8F09FCBF10000DFE704460021404A39
:103CE000491842EB0450CDE9001012E0E00707D07C
:103CF00032463B4640464946FCF70AFB8046894629
:103D000032463B4610461946FCF702FB06460F4674
:103D10006410002CEAD1DDE90401DDE90023BAF1E9
:103D2000000F06DAFCF7F4FA42464B46FCF7F0FACD
:103D300005E0FCF75FFB42464B46FCF75BFB0446A5
:103D40000E460022284BFCF705FE03D84FF0FF304B
:103D5000014607E00022254B20463146FCF73AFD9C
:103D6000FCF7DFFD102409E0002C0ADB0A22002307
:103D7000FCF73CFC039B30321A55641E50EA0102EA
:103D8000F2D1641C039AC4F111031444119A012A5C
:103D900003D0012208430DD10AE0084304D00020DB
:103DA0004FF0110B119072E7A3EB0B056D1E0DE0A8
:103DB0005B4504DD4FF0000205F1010504E003DA84
:103DC0004FF00002A5F10105002AECD002981199EC
:103DD000C0E90231C0E9004579E700000000144065
:103DE0000000F03F300000000000F0430000E03F22
:103DF0002DE9FF4F95B09B468946064600250FE208
:103E0000252877D100242746F84A0121059400E0AF
:103E1000044316F8013F203B01FA03F01042F7D1AA
:103E200030782A2811D06FF02F033078A0F13002BB
:103E3000092A16D8059A44F0020402EB820203EB29
:103E400042021044761C0590EFE759F8042B0592C6
:103E5000002A03DA504244F40054059044F002046E
:103E6000761C30782E2816D116F8010F44F0040481
:103E70002A280DD06FF02F023078A0F13003092BE3
:103E800009D807EB870302EB4303C718761CF3E757
:103E900059F8047B761C30786C280FD006DC4C284F
:103EA00017D068280DD06A2814D104E0742810D0E7
:103EB0007A280FD10DE044F400140AE044F4801491
:103EC00001E044F440147278824202D104F5801477
:103ED000761C761C307866280BD013DC582877D0F7
:103EE00009DC002875D04528F6D04628F4D04728AC
:103EF0001AD19DE118E0632835D0642879D065286F
:103F000012D195E1702873D008DC6728F1D06928B8
:103F10006FD06E280DD06F2806D1B5E073282CD055
:103F2000752875D0782874D05A46179990476D1C1B
:103F300075E1C4F30250022809D003280DD0D9F846
:103F4000001004280DD00D6009F1040967E1D9F8CB
:103F50000010EA17C1E90052F6E7D9F800100D8009
:103F6000F2E70D70F0E719F8041B8DF8001000203F
:103F70008DF80100EA46012003E059F804AB4FF048
:103F8000FF3061074FF0000102D40DE008F101019C
:103F90008846B9420FDA8045F8DB1AF80810002984
:103FA000F4D108E008F1010188468142FADB1AF8F1
:103FB00008100029F6D105985B46A0EB08072146BA
:103FC0003846179A00F094FA284400EB080507E0F9
:103FD0004DE029E10DE01AF8010B5A461799904778
:103FE000B8F10108F7D25B4621463846179A13E12B
:103FF00042E00A220092C4F302524FF0000A022A61
:1040000008D059F804CB032A4FEAEC710AD00DE02E
:1040100029E02AE009F1070121F00702F2E802C1D4
:10402000914609E00FFA8CFC4FEAEC71042A03D1A7
:104030004FFA8CFC4FEAEC71002907DA0A4600219E
:10404000DCF1000C61EB02012D2202E0220504D517
:104050002B228DF80420012203E0E20701D0202268
:10406000F7E7904659E00A2102E010220DE0102106
:104070004FF0000A00910BE010224FF0000A44F0CC
:1040800004040827009203E008224FF0000A00927F
:10409000C4F30252022A05D059F804CB0021032AA6
:1040A00008D009E009F1070121F00702F2E802C196
:1040B000914605E01FFA8CFC042A01D10CF0FF0C9C
:1040C0004FF00008220728D5702806D0009B83F007
:1040D000100353EA0A0305D00EE040228DF80420B5
:1040E000012208E05CEA010206D030228DF80420AB
:1040F0008DF8050002229046009B83F0080353EAE6
:104100000A030AD15CEA010201D1620705D5302217
:104110008DF804204FF001087F1E582804D034A0E9
:1041200003900EA802900DE036A0F9E753466046D2
:10413000009AFCF75BFA84460398825C0298401E62
:10414000029002705CEA0100F0D1029806A9081AF8
:1041500000F1200A600702D524F4803400E0012732
:10416000574502DDA7EB0A0000E0002000EB0A0142
:10417000009005984144401A0590E00306D45B4640
:104180002146179A059800F0B3F90544002706E088
:1041900001A85A46C05D179990476D1C7F1C474582
:1041A000F6DBE0030CD55B462146179A059800F034
:1041B0009FF9054404E030205A46179990476D1C3A
:1041C0000099481E00900029F5DC08E00298029949
:1041D0005A460078491C0291179990476D1CBAF114
:1041E0000001AAF1010AF1DC65E1000009280100E3
:1041F000303132333435363738396162636465665D
:10420000000000003031323334353637383941421E
:10421000434445460000000000F058F90544761C70
:10422000307800287FF4ECAD19B02846BDE8F08F57
:10423000620700D4062709F1070222F0070CFCE808
:104240000223E14603F000485FEA080C02D00FF2B7
:10425000702C0DE05FEA045C02D50FF2682C07E0D9
:104260005FEAC47C02D00FF2602C01E0AFF2700C68
:104270004FF0FF3823F00043CDF850C065280CD034
:1042800006DC452809D046281DD047283DD13DE011
:10429000662818D067287ED138E00021112F01DB75
:1042A000112000E0781CCDE9000106A90EA8FFF757
:1042B000DDFCDDE90F010E9A03910021009207F168
:1042C000010A04914DE04FF000400097CDE9011044
:1042D00006A90EA8FFF7CAFCDDE90F0203920E9BA8
:1042E00011990022DDF80CA00093049211B9791CF9
:1042F00000EB010AB7EB0A0004D4C0F1FF3007F16C
:10430000010A0490AAEB0700019044E0012F00DAB3
:1043100001270021112F01DD112000E03846CDE9F1
:10432000000106A90EA8FFF7A1FCDDE90F010E9A16
:104330000391002104910092BA4621070CD40399FD
:10434000514500DA8A46BAF1010F05DD009AAAF15B
:104350000101515C302908D0B84202DA10F1040F93
:1043600006DA0121CDE9011015E0AAF10101E9E722
:10437000002805DC049901440491AAEB000102E045
:10438000411C514500DD8A460499401A401C0190A9
:104390004FF000400290200704D40198504501DB03
:1043A000CDF8048000208DF84F0002980DF14F07E2
:1043B000B0F1004F25D02B200E9002984FF002084C
:1043C00000280CDA404202902D200E9007E00A21CE
:1043D0000298FCF7F5F83031029007F8011DB8F1AA
:1043E0000001A8F10108F2DC02980028EFD1791E43
:1043F0000E980870307800F0200040F0450007F873
:10440000020D12A8C01B00F107081498007800B133
:10441000012000EB0A01019801EBE071059841448D
:10442000401A401E0590E00306D45B462146179AC9
:10443000059800F05DF805441498007818B15A46C4
:10444000179990476D1CE00324D55B462146179AC7
:10445000059800F04DF805441CE00498002807DB9F
:10446000DDE90301884203DD0098405C179901E013
:10447000179930205A469047049805F10105401CD1
:1044800004900198401E019004D12E205A4617999D
:1044900090476D1CBAF10001AAF1010ADDDC05E0CC
:1044A00017F8010B5A46179990476D1CB8F1000197
:1044B000A8F10108F4DC5B462146179A0598ABE6A3
:1044C0002D0000002B000000200000002DE9F0412D
:1044D000044600251E461746880404D405E03946E4
:1044E0002020B0476D1C641EF9D52846BDE8F08138
:1044F0002DE9F041044600251E469046C80301D52B
:10450000302700E02027880404D505E041463846DE
:10451000B0476D1C641EF9D52846BDE8F0810A68D5
:10452000531C0B60107070472DE9F84F0024FDF705
:104530000DFDDFF89080DFF89090DFF890A0244E1A
:104540004FF07E5BA006070ED8F80000FBF7D8FFFF
:1045500009EB8701D1F8041EFBF75EFE5146FBF71D
:1045600058FE5946FBF752FEFBF7DCFFC5B21F2D84
:1045700000D91F25C5F1200080B200901448032304
:1045800005F120023946943800F099F9305DA842CF
:1045900001D9355510E01F2801D91F2030550320BF
:1045A00000900346325D0A4839469438233200F0C1
:1045B00086F9305D801C3055641CA4B2202CC1D318
:1045C000BDE8F88F00000020DC0200200000F84168
:1045D000BC00002030B5144887B000680446FBF7E3
:1045E000A1FF85B26FF007012046FBF785FEFBF7C0
:1045F00099FF84B20D480068FBF794FF82B223460E
:104600000BA101A80095FFF7F7FA0E490E4800F03C
:10461000DBFA01AB0C2200210B4800F071FA0A48CA
:1046200000F0BBFA07B030BD080000200C000020ED
:10463000463A25356420453A25642053463A256498
:10464000000000002C57000828000020F8B50F22B9
:10465000084E0124234636F82400C509601E81B2A5
:104660000548009500F0DCF9641CA4B22A46802CB1
:10467000F0D3F8BDDC0200202800002010B5064869
:10468000FDF790FC0548FEF7AFFEBDE810400122A3
:1046900003490148FDF754BE3C0100204C020020B4
:1046A000DC0200202DE9F04100201B4D024600BF36
:1046B00005EB8001D1F8003205EBC001401C80B24F
:1046C000C1F80036C1F80426FF28F1D913490123A7
:1046D00000220C461248FCF7A9F94FF480721149E8
:1046E0002046FCF7B3FE6FF00701D5F8000EFBF78C
:1046F00003FE01246FF00607C5F8000E05EB8406E3
:104700003946D6F8000EFBF7F7FD641CC6F8000E1C
:10471000FF2CF3DDBDE8F081DC020020DC08002086
:1047200058640008DC1000202DE9F04100241A4EE6
:104730001A4D27463088012807D1641CA4B237805F
:104740001748FDF721FD25F81400FF2CF2D9154F6D
:1047500000244FF066366FF00B0800BF35F81400E8
:10476000FBF7D3FE32463B46FBF7D2FD4246FBF752
:10477000B0FEFBF7FEFE05EB8401C1F80002FBF77B
:10478000E5FE02460B4608A0FFF726FA641CA4B219
:10479000FF2CE3D9BDE8F08104000020DC020020FA
:1047A0003C01002066660A40253032660D0A000092
:1047B00013B54FF6FF73012269460248FEF714FF56
:1047C00000981CBD94020020FEF766F8FFF7C1F8C0
:1047D000FEF79CFFFEF77CFFFEF754FFFFF72AF879
:1047E000FEF7F4FFFEF7CCFF174947200860091DCC
:1047F00063200860FFF742FF012210211348FEF7F3
:1048000037F8134800F03CF8114900203F2294315A
:104810000A54401CC0B28028FAD300BFFFF784FFBF
:10482000FFF740FFFDF792FB094800F071F900BF68
:10483000FFF77AFEFFF7CEFEFFF708FF044800F00F
:104840008DF90028F4D1E9E7280400400008014070
:104850002800002070B50546FBF730FF044620F025
:104860000040C0F1FF40C00F08D025F00040C0F16B
:10487000FF40C00F04BF0120FFF7F2F9204670BDD2
:1048800010B50446064B074A074900F0E5F92046F3
:1048900000F031FD2046BDE81040002100F03BBD96
:1048A000B15600088D530008845F000801680A7C37
:1048B00090F83810406B5143C900FBF74ABC2DE912
:1048C000F8438146089C1E46101980B20090881952
:1048D00083B215468846484600F028F900280ED0D5
:1048E0000027002C0BD033462A4641464846009705
:1048F00000F040F86D1C641EADB2A4B2F1E7BDE853
:10490000F8832DE9F041044690F870001F461546E3
:104910000E4630B1012809D002280CD0032815D149
:104920000FE0E16D20468847284408E0E16D20460D
:104930008847301A09E0E16D20468847281A85B279
:1049400004E0E16D20468847304486B22846A4F84A
:104950006460A4F8660039460025204600F072FB2A
:10496000010003D0204600F09DFA85B22846BDE83C
:10497000F08100003FB581B0044690F88C000899A2
:1049800000283AD0BDF81000002836D0012811D9EF
:10499000022902D0032907D00CE0BDF80820101A24
:1049A000401CADF8080005E0BDF80C20101A401CB2
:1049B000ADF80C0011F0010521D0B4F84810BDF895
:1049C0000800814219D8B4F84A10814215D9B4F8C8
:1049D0004E30B4F84C2004A90DF10C0000F0D4F9CD
:1049E00000280AD00095206BBDF81030BDF80C20CF
:1049F0008568BDF808102046A84705B030BDB4F85A
:104A00004C10BDF80C008142F7D8B4F84E1081422A
:104A1000F3D9B4F84A30B4F8482004A902A8DDE775
:104A20002DE9FF5F1C460E984FF00009A14201D905
:104A30000B1B00E0631A9DB2824201D9131A00E0F9
:104A4000831A9EB2AE420AD92B4635461E460B4605
:104A500011461A46234604464FF001091846A14262
:104A600005D90B4621461C461346024618464FEA16
:104A70005508904201D9012001E04FF0FF308246F5
:104A8000A4F57F409346FF3801D1641EA4B20F46BF
:104A900018E000BFB9F1000F18D03A465946009807
:104AA00000F017F8A8EB060000B25FEA000807D58F
:104AB0000BEB0A001FFA80FB08EB05000FFA80F8E9
:104AC0007F1CBFB2A742E5D9BDE8FF9F5A463946D1
:104AD000E5E708B5B0F84C30934210D8B0F84E3046
:104AE00093420CD9B0F848308B4208D8B0F84A301D
:104AF0008B4204D9002300930123FFF73BFF08BD3D
:104B000030B4024C446030BC00F06BB97D530008F7
:104B100010B5044690F8930010B12046FFF7C6FE8A
:104B20002046BDE81040002100F040B870B50D46A9
:104B30001E460446B0F84E10B0F84C00049B00F03E
:104B4000DEFA002809D0B4F84A10B4F84800334619
:104B50002A46BDE8704000F0D2BA70BD70B5044678
:104B600000F05DFB94F8390094F838100844C5B2A1
:104B70002068407CA84204D8204600F0C4FB0020F6
:104B800070BD94F8930010B12046FFF78FFE2946C0
:104B9000204600F00BF8012070BD10B5044600F06F
:104BA0003EFB2046BDE8104000F0ADBB10B504460A
:104BB00080F83910006B016820468847206B4168F7
:104BC0002046BDE81040084710B50446806D884275
:104BD00009D004F17400A16500F0ECFA2046BDE8AC
:104BE000104000F055B810BD0149C1657047000084
:104BF000594E00080021A0F85010A0F854104FF6AC
:104C0000FF71A0F85210A0F85610016B49680847D0
:104C100070B5044600250498A565E362616384F8D5
:104C2000382084F8395084F86D5084F8915084F815
:104C30008D50012184F8921084F89310206301684C
:104C4000204688472046FFF7D5FF2046FFF7CCFFD8
:104C500084F8705070BD00007CB50C46009313467C
:104C60000546084A084900F05EFB01A800F09CFADE
:104C70000146064B00949DF804202846FFF7C8FF24
:104C80007CBD0000275400089D55000819510008FC
:104C900010B5816D00291AD090F9813080F88E30DE
:104CA00090F9822080F88F2090F88D1000290ED086
:104CB00001290DD090F97E4090F980100C449C425F
:104CC00001DD80F88E408A4201DD80F88F1010BD32
:104CD00090F983108B4201DA80F88E1090F98410DD
:104CE000F1E72BB1012B05D0022B06D0104402E0D6
:104CF000084400E0801A80B27047401AFBE72BB1ED
:104D0000012B05D0022B06D0401A02E0104400E02F
:104D1000084480B27047801AFBE738B50446B0F803
:104D200056000090B4F85230B4F85420B4F8501043
:104D30002046FFF7FBFE18B3012084F88C00B4F87E
:104D40004810B4F85000814201D2A4F84800B4F8E9
:104D50004A10B4F85200814201D9A4F84A00B4F8CC
:104D60004C10B4F85400814201D2A4F84C00B4F8BD
:104D70004E10B4F85600814201D9A4F84E0038BD57
:104D8000002084F88C0038BD30B504880D88254497
:104D9000ADB2AC4205D99C4202D25D1EADB200E07C
:104DA00014469C4201D2954201D8002030BD944265
:104DB00000D214469D4200D91D460480281B08805D
:104DC000012030BD38B5C58F049C0094521BC46AC5
:104DD00092B2A04738BD38B5049C0094FFF7F2FFAB
:104DE00038BD2DE9F0471C4691468846064600F03E
:104DF0007BFC00254FF6FF7772682178304690479C
:104E00000346B84225D0641CA3F57F40FE38F3D09A
:104E10004A4641463046FFF774FD96F8701031B1AE
:104E2000012907D0022908D003290FD10AE008EB95
:104E3000000104E009EB000106E0A8EB00011FFA05
:104E400081F803E0A9EB00011FFA81F9284485B23B
:104E5000D2E72846BDE8F0870020704710B50C4621
:104E600000F006F80122641EA240801A40B210BD74
:104E700030B50568047B2A78E2406318DBB2082B62
:104E800009D36D1C05602D78C4F10804A5401543B5
:104E9000083BEAB2DBB201248C40641E1440037369
:104EA000204630BD2DE9F843054600F1600400F0CE
:104EB0000CF915F96B6F2046E97BFFF7CFFF8146B0
:104EC000297C2046FFF7CAFF0746697C20466B3DD8
:104ED000FFF7C4FF804694F90A00002857DDF01957
:104EE000404247B2237CA0883A464946FFF7F9FE84
:104EF000A080237C3A46E0884946FFF700FFE08027
:104F0000A188277C02460B4637B1012F0AD0022F19
:104F100040D0032F0FD146E094F90A7030443B444F
:104F20009BB207E0891B491C94F90A705B1C89B28B
:104F30009BB2384480B200902846FFF7F7FD30B3AB
:104F40000020207284F8090095F876102046FFF7BB
:104F50008FFF814695F877102046FFF789FF0746B7
:104F600000224946284600F027F801223946284603
:104F700000F022F801212046FFF77AFF0028EFD148
:104F800094F90900B042DFDBA07B85F8920040462F
:104F9000BDE8F88394F90A705B1CC91B491C89B2EF
:104FA0009BB2921B04E094F90A7033449BB2D21B6B
:104FB000521C92B2401CBDE72DE9F74F84B00D465C
:104FC000049C94F8687094F869806034A07AC01BDF
:104FD000C6B20196B54200D201954FFA88F279B275
:104FE000A088B4F806B0237C92468946FFF779FE84
:104FF0000290237C524649465846FFF780FE0246FF
:10500000069808B1A17B02E0607B50B9E17B04986F
:1050100080F89210207C0090DDE901310498FFF7C0
:10502000A9FCB54207D3A81BC5B208F101000027AF
:1050300000F0FF08CAE77819207284F8098007B0E9
:10504000BDE8F08F70B50D460146806D1730FF2D1D
:1050500010D8612D02D3B1F8881003E0412D02D39E
:10506000B1F886100844417819B30278AA42F9D100
:10507000801C70BDB1F88A100C18264600213046FD
:1050800000F019F804440221304600F014F8361DEF
:10509000A842F3D34FF6FF72207802EA002160782D
:1050A000084306D0A84201D1E01C70BDA07804449A
:1050B000F2E7002070BD08444FF6FF720178407897
:1050C00002EA0121084480B2704730B5054600F17C
:1050D000600401660020207315F8781F2046FFF752
:1050E000C7FEA07269782046FFF7C2FEE072A87E74
:1050F000A07310B10020E07330BD0120FBE78A42AD
:1051000005D2834201D89A4203D9012070478342D5
:10511000F9D8002070470000F0B502F0070601241E
:10512000B440002590F892E0E7B2DDF814C02C46B8
:10513000BEF1010F01D83D4600D03C46076822F081
:105140000702BCF1000F3F7C07FB02F7BAB2476BC6
:105150003A44114409D108785B1E284360401B047F
:1051600001F8010B1B0CF6D1F0BD0A78761C2A431E
:105170006240A3F101030A7016F007069BB206D045
:105180006A06150E6206140E002BEED1F0BD428F9A
:10519000114490F89220012A03D800BF4FF0010576
:1051A000F2D04FF00104EFE708210170004870478A
:1051B000E814002070B505460878287048786870B3
:1051C0008878A870C878E87008792871487968717B
:1051D00088790C46A871E079E871207A2872607AA3
:1051E0006872A07AA872E07AE872207B2873607BEC
:1051F0006873A07BA873E07BE873207C287411217E
:105200002046FFF758FF688213212046FFF753FF1F
:10521000A88215212046FFF74EFFE88270BD2DE9D8
:10522000F843064690F8387090F83950006800242A
:105230004FF6FF7890F81190316830462A460B7C83
:10524000716B04FB03FC1FFA8CFC08EACC0C614474
:105250000091002100F040F8641C6D1CE4B2EDB236
:10526000BC4201D24D45E7D3BDE8F883F0B590F8D4
:1052700038204FF6FF75036805EAC2018187197C63
:1052800005EAC101418790F8394005EAC401C187A8
:105290005E7CA718B74201D9321B92B205EAC2025E
:1052A00020F8401F11444180998A8180D98AC180A9
:1052B000F0BDFFF7DBBF0021A0F84810B0F84410A4
:1052C000A0F84A10B0F84010A0F84C10B0F8421006
:1052D000A0F84E10FFF721BD1CB58DF805108DF814
:1052E0000620049C8DF804300094012284686B46EB
:1052F0000F21A0471CBD30B484680023A44630BCF5
:105300001A460A21604730B484680023A44630BCA2
:105310001A461021604730B484680023A4460A4628
:1053200030BC0B2160472DE9F04115460E4604467E
:10533000069F00F009F86761A660C4E903532046A0
:10534000BDE8F04100F012B8002140F8081B064A01
:10535000026042608260C260C17681770161FF2194
:10536000017780F820107047A156000830B4846897
:105370000023A44630BC1A4609216047080001D02A
:105380000A2801D14FF6FF707047000070B51D4626
:105390000446182916D004DC14292ED0172904D16C
:1053A00005E019291CD0202907D0002070BDC82392
:1053B00029461348FDF7D6FE1FE040211148FDF7AE
:1053C00057FA1AE0206849210278204600F06AF96D
:1053D00020680023656982782C212046A8470CE0CC
:1053E000206800236569C2782C212046A8472068E0
:1053F00049214278204600F055F9012070BD000097
:10540000B00100200008014013B50122046901AB7E
:105410001721A0471CBD30B404690023A4460A46E6
:1054200030BC202160472DE9F0410546A1F1140070
:105430001F4616460C4606281CD2DFE800F0120371
:10544000030E121200212846FFF7E5FF31462846D9
:10545000FFF7DAFF0120BDE8F08101212846FFF7C0
:10546000DAFF3B46324621462846D5F810C0BDE853
:10547000F04160470020EEE730B4C4680023A44642
:1054800030BC1A461921604730B4C4680023A446D2
:105490000A4630BC1621604730B4C4680023A446D5
:1054A0000A4630BC1521604730B4C4681346A44690
:1054B0000A4630BC17216047F8B50C464FEA000594
:1054C00014F8011B182924D00EDC152919D016292F
:1054D00017D0172923D120788DF800006A460121C2
:1054E0002846FFF7E1FF0AE0192912D0FE2916D15C
:1054F00022788DF800202921284600F0D3F8641C7A
:10550000DEE722788DF80020EE6800232846B047B9
:10551000F5E70023EE681A462846B047D0E7F8BD05
:1055200030B4C4680023A44630BC1A461821604732
:1055300070B50023456904461A462821A847002370
:10554000E5681A4614212046A84701224B2120462F
:1055500000F0A8F8206829210279204600F0A2F87E
:1055600000224B21204600F09DF820682921027975
:10557000204600F097F801224B21204600F092F8D7
:105580002068292142792046BDE8704000F08AB8A1
:105590000160897C80F822107047000070B50C46CD
:1055A000054600F019F888B9092C0BD00A2C01D057
:1055B000002070BD2846FFF7BBFF05492846FFF7CE
:1055C0007BFF03E003492846FFF7E2FF012070BD9F
:1055D000B65F0008B86000082DE9F0411E46144689
:1055E00005460B2908D00D290ED00E291ED00F29F3
:1055F00027D00020BDE8F0811AB12849FFF75CFFF1
:105600004AE02649491FF9E74AB124490C31FFF71E
:1056100053FF286890F8130085F822003CE01F49EA
:10562000491DFFF749FF2868807CF5E7FFF778FF01
:1056300081212846FFF730FF21462846FFF724FF47
:1056400027E0FFF76DFF707995F8221001EBC0009D
:10565000C7B240212846FFF71FFF102040EA17116C
:105660002846FFF719FF07F00F012846FFF70CFF48
:10567000B07940F0B0012846FFF706FF3079326874
:10568000C006010E2846FFF70FFF641E14F0FF044A
:10569000F4D12846FFF7F0FE0120ABE7955F000844
:1056A0000020704730B444690023A44630BC6047F2
:1056B00010B50C4B104649290BD004DC28290ED01C
:1056C00029290CD102E04A2909D104E0FCF7CEFFD8
:1056D00005E0082100E040211846FDF7C9F8012047
:1056E00010BD000000080140002180F8261070471E
:1056F000010202030405060708090A0B0C0D0E0F30
:105700001010010202030405060708090A0B0C0D1C
:105710000E0F101000000000000000000102030442
:10572000060708090000000001020304BF0002028E
:105730000304030404080BFFFE06FE07FF01340206
:105740008B0838200500A6032107B2A27348012266
:10575000079BAE93AC00230E459E57A6345499D2B6
:1057600050654A00240D4D9E9BC71C72E491C68E65
:1057700000250B3DA233531A3A0F550E260BB6A146
:105780003B35D463243904270519AF332808C39E59
:105790009B92670E2909C39E93A37295002A082441
:1057A000AE9B4652312B0A2DA69B511C32A3082CCE
:1057B000079B9AA74A002D060DAE33042E058AA238
:1057C000232F0AC49E5FE69863CE00300D3DA2B73A
:1057D000D448238D34925A00310D3EA22B47461AED
:1057E00069A4911C0332093DA2B76CE91A23330B5B
:1057F0003DA2B76CB5D1486A01340B3EA2AF6772C7
:105800008DAD9102350B3DA273E491EC3916003653
:105810000C3DA2B7D4C823A991D402370A3DA27384
:10582000242DB5D412380C3DA2B7D4486AA991D41E
:1058300002390C3DA2B7D4486AE491D4023A07A2D7
:10584000A2A391003B08339AA72955023C072CA636
:10585000AB6C033D081CAA33321A013E07ACA6A369
:105860002D133F0935A2B7A29B9400400C469E37EA
:10587000658AAA9F43C309410CB7A13732DAA81E33
:1058800052A903420CB6A133A452232A6B8C0443C1
:105890000A35A237D6C8965A00440AB6A133A4F2F4
:1058A0006B8C04450CB6A1736934A2466A0C0146A0
:1058B0000CB6A1736934A2467A4400470B35A2B7EF
:1058C000D4C863243502480BB7A1B39639A4924AD1
:1058D0001D490934A23392748D004A0AB6A13BB225
:1058E000463E27004B0DB7A1B3A4CA1B8DACD448CC
:1058F000024C0CB6A133B2461A69A4C6104D0AB6C2
:10590000A1A393D750D52A4E0CB7A1B3AEB8A2929B
:105910004ACD044F0C35A2B7D448238DA4160050AD
:105920000BB6A133A4728DA84704510C3D9EB7D489
:1059300048238DA43612520DB7A133B4924A8EACCF
:10594000D44802530A35A237E6D0238E05540CB64C
:10595000A173241535D2488F04550CB7A1B396A96D
:10596000A4924A4F00560CB7A1B3969D32DA68C391
:105970000C570DB7A1A3926AA672E88D4A00580C85
:1059800036A223D5C81AE991A400590DB7A13395C1
:105990009423230D351A095A0935A27324E91A23D1
:1059A0005B08C39E3394AF015C0C449E9333CA19C9
:1059B000E58C72005D08C39EB37C0D015E071DB2CD
:1059C0009B97015F050E9A73600612BB1303610A71
:1059D0002EA237951CC91A03620DBEA1B3914623AE
:1059E0002AAF311200630A2DA2B7D4C84A2D006431
:1059F0000A3EA2BB911CC9CF2165092DA2B7D4B81C
:105A0000D108660A3DA2BBE450DA1C02670C3E9A3C
:105A1000A746F23932522302680ABEA1B391462347
:105A20002A7F690C3EA2ABC99191461AC9316A0A14
:105A30004C9AABD1889E43016B0DBFA1B3A1864A9E
:105A40008EBCD1C86A6C0D3EA23332D248238D344D
:105A500092636D09AEA133E450FD036E08AEA1A3BD
:105A6000A4F2076F0A2DA2B7D44823A905700BBE74
:105A70009933A4F235A21E11710B3E9AA746F23952
:105A800032D223720A2EA2A3AEA4911E11730C2E41
:105A9000A237D24623A3311400740C3EA2A7911E54
:105AA00052238DCC05750BAFA1B3A4924A2A3D04B5
:105AB0007609AEA1B39C7BA308770CAFA1A3926A31
:105AC0000E3D728A00780A2EA2B3D4C87A243579A2
:105AD0000EBF99B396A974CA6823BD11007A092D27
